:020000040000FA
:020000000528D1
:080008002A28831203131E30A5
:10001000A0004821831603130614073081008312C1
:1000200003138B178B160B1683120313C030A20019
:10003000A301B401B001A501A401A409B901AF2134
:10004000BA01AC01AD01AE01AF01BC22DA018312ED
:100050000313E928831203138B1833280B19512833
:10006000831203130900831203138B100B128312E4
:1000700003131E30992006182E2803303406031966
:100080004D280630340603194D2804303406031970
:10009000422A34188B21341C5C21831203130B1663
:1000A0002E28831203130B118B1283120313A00B40
:1000B0008A2883120313A20AB00A8F220530300661
:1000C000031D792AB40AB001033034060319BD298F
:1000D000043034060319FB29053034060319532A6A
:1000E000063034060319BD2934187728862A2630AD
:1000F000AB004530D0000430B0002B30A221831279
:10010000031303303406031988281E30A0008A2800
:100110002E30A000831203138101831203138B1668
:10012000831203130900F930F0000000F00B95284A
:100130000800F1009320F10B9A28080085169320FF
:100140009320932093209320851293209320932033
:10015000932093200800F500F039F200F20E7208A7
:100160008500741A05169E20932075080F398501A5
:100170008500741A05169E2093200800643099208B
:100180000F30F400831603138501831203138501D6
:100190008316031307309F00831203130330850077
:1001A0009E20053099209E2093209E2005109E20A1
:1001B0002830AB200830AB200130AB200630AB201C
:1001C0008030AB200C30AB20080074120F30AB2015
:1001D00008000A309920BE200D21C0307412AB20D7
:1001E00030307416AB20C0307412AB20831203136E
:1001F00081011E30A000E520FC288312031308159E
:100200007F288312031308117F2883120313881594
:100210004D288312031388114D28831203138B1367
:100220008312031374128030AB2045307416AB2058
:100230004E307416AB2054307416AB204530741613
:10024000AB2052307416AB2020307416AB204F30E8
:100250007416AB2050307416AB2045307416AB20AA
:1002600052307416AB2041307416AB2054307416E3
:10027000AB2049307416AB204F307416AB204E3093
:100280007416AB20831203138B1783120313080019
:10029000831203132630AB00840007308000840AE9
:1002A00006308000840A06308000840A0430800012
:1002B000840A063080000800831203131E30A00059
:1002C0008101A30A24186B210A3023060319A30114
:1002D00023087B210800A5012B0884000008FF3EAD
:1002E00023060319A5092B08840000082306031D13
:1002F0000800A3010800B30022087412AB203308E1
:10030000303E7416AB2022087412AB200800303E39
:100310007416AB200800831203131E30A000810165
:10032000B80AB90A380884003908B1000330B106A8
:1003300003199B299F29B9013530B80084000008B2
:10034000A221080083120313B30022087412AB2009
:1003500033087416AB2022087412AB2008008312F5
:1003600003133530B80084002B308000840A2F300E
:100370008000840A253080000800831203138B1349
:10038000831203130330B4000430B000BA017412B6
:100390000130AB200C30AB208030AB2074165230D3
:1003A000AB204530AB205330AB205530AB204C3028
:1003B000AB205430AB207412C030A200AB207416B6
:1003C0003D30AB208C23B9013530B8000430B0008B
:1003D000831203138B17831203137F2883120313D3
:1003E0002C08BB002D08BC0010232E08BB002F08D2
:1003F000BC0010230800831203130430B000003047
:100400003A060319092A01303A06031D7F28B40A67
:100410005928831203138B12831203137412803032
:10042000AB20831203138B138312031374164B3008
:10043000AB204530AB204530AB205030AB203F30B7
:10044000AB202030AB205B30AB203130AB203A30DA
:10045000AB205930AB202C30AB202030AB203230D9
:10046000AB203A30AB204E30AB205D30AB202E308D
:10047000A000831203138101831203138B178312CD
:10048000031390288312031300303A060319492AF4
:1004900005282E30A0008312031381010B118B1647
:1004A000512ABA0A4D28831203130430B000741283
:1004B0000130AB200D217412C030A200AB202C08FB
:1004C000BB002D08BC0010237412C630A200AB2064
:1004D0002E08BB002F08BC0010237412C530A200E8
:1004E000AB20B90174162B30A221E5200530B400F1
:1004F0007F28AB0AD00AD00AA30103017B21A40103
:10050000251C7F28A501A401A4097F28A501A40119
:10051000A4092630AB00A30103017B217F288312AD
:1005200003130030230603190800003034060319B2
:100530009E2A023034060319AD2A080050088400B0
:100540000008AD070318AC0AD00A50088400000860
:10055000AC07D003A30B9E2A0800500884000008B3
:10056000AF070318AE0AD00A500884000008AE078F
:10057000D003A30BAD2A0800831203134530D0002B
:10058000840010308000840A27308000840AE8301C
:100590008000840A03308000840A64308000840A6A
:1005A00000308000840A0A308000840A0030800015
:1005B000840A01308000840A003080000800831221
:1005C0000313C101C201C301C4013E08C0003D08BC
:1005D000BF00C009BF09C00FEE2ABF0AE101C20F68
:1005E000F22AC10A4008BC07031CF92ABB0FF92AEA
:1005F00061143F08BB076118EE2A031C002BEE2A8A
:10060000003042060319062BC203072BC1033E0824
:100610003C07C4000318C30A3D083B07C307080092
:10062000831203131030BE002730BD00DF224208C2
:10063000DB004308BB004408BC00E830BE000330C8
:10064000BD00DF224208DC004308BB004408BC00B8
:100650006430BE000030BD00DF224208DD004308E8
:10066000BB004408BC000A30BE000030BD00DF22E1
:100670004208DE004408DF005A1C6C2B0630DF07FE
:100680000A305F02031C472B0A30DF02DE0A033008
:10069000DE070A305E02031C502B0A30DE02DD0A40
:1006A0000530DD070A305D02031C592B0A30DD02DC
:1006B000DC0A0530DC070A305C02031C622B0A30BE
:1006C000DC02DB0A0630DB070A305B02031C6C2B02
:1006D0000A30DB02013087215B0887215C08872113
:1006E0005D0887215E0887215F0887210800831243
:1006F0000313D701D6015A102C08D6002D08D700B5
:100700002F08D707031C872BD60F872B5A142E08C8
:10071000D60703185A140800831203130030390651
:100720000319932B9B2B77235608BB005708BC005B
:1007300010235A10080000302E06031DA32B003092
:100740002F060319CA232D08BC002C08BB002F0854
:10075000BE002E08BD00DF224308E0004408B300BD
:10076000023039060319C42B74165130AB203D30CA
:10077000AB204108BB004208BC0010232030AB2056
:100780005230AB203D30AB206008BB003308BC00CA
:100790001023080074164530AB205230AB20523085
:1007A000AB202130AB202030AB204430AB2049308F
:1007B000AB205630AB202030AB204230AB2059303C
:0C07C000AB202030AB203030AB20080014
:02400E00313748
:00000001FF
